:020000040000FA
:06000000F8EF08F0120009
:020006001200E6
:0600080021EF04F01200DC
:02000E00D0829E
:04001000D08012008A
:04001400BD6A1200AF
:0600180098EF04F0120055
:02001E000100DF
:0C0020001E1200001D0000000300000084
:04002C0090DB86E9F6
:100030000150010600090CE002EBE6FF03EBE6FFCE
:1000400000EBE6FF69DBF4E1131DF2E1010E01D0E4
:10005000000E41E9E5CFDAFFE7CFD9FF120077DBE9
:1000600089E97BE80A6A0B6A02EBF6FF03EBF7FF0C
:1000700004EBF8FF0800F550096E095001E12DD39B
:10008000250E095C01E01BD30C6A0D6A0E6A0F6A2B
:10009000106A2DDB2D0E095C0CE02B0E095C09E0CB
:1000A000200E095C06E0230E095C03E0300E095CBB
:1000B00015E10950300A10E0130A0CE0030A08E0C9
:1000C0000B0A04E0060AE5E10C80E3D70C82E1D7D5
:1000D0000C84DFD70C86DDD70C88DBD72A0E095CB1
:1000E00013E1A5DB0DE30C801CEB12F01DEB13F00C
:1000F0000001126D131F000E132312510D6E02D05A
:100100009CEB0DF0F4DA07D0126A3FDB02E06BDB08
:10011000FCD792EB0DF00CB00C982E0E095C15E19B
:10012000E6DA2A0E095C08E182DB04E29CEB0EF0C1
:10013000010E0F6EDCDA09D0126A27DB02E053DB16
:10014000FCD792EB0EF0010E0F6E680E095C07E112
:10015000CEDA680E095C1DE1030E106E19D0740E24
:10016000095C16E07A0E095C13E0480E095C06E0B3
:10017000540E095C03E05A0E095C02E1020E07D03E
:100180006C0E095C03E06A0E095C03E1010E106E5F
:10019000AEDA09506E0A01E16ED21E0A01E128D1E1
:1001A000200A01E125D13F0A01E1FDD01A0A01E14F
:1001B000FAD00D0A01E1F7D0200A01E1F4D03A0AA1
:1001C00001E1F1D0200A01E1EED0260A01E1EAD0F6
:1001D0000D0A01E1E7D01A0A01E19ED0200A3BE0B6
:1001E000300A1AE0460A0EE0250A01E072D2D95020
:1001F000020FE96E000EDA20EA6E010EEE5E000ECE
:10020000EE5AEE5A0FDB250EE66E86DA03E1131D79
:1002100001E159D20A2A5BD2116A0D50010803E2AA
:100220000D04116EF5DA115007E0010E0C1404E113
:100230006DDA01E048D2116AD3DAEF50096ECBDAF9
:1002400003E1131D01E13FD20A2A000E0B225EDA00
:1002500001E13FD238D2020E105C08E1030E4EDA03
:10026000EE50176EEE50186EEF5007D0E7DA146BB1
:100270001251176E1351186E1451196E17EBE6FFD9
:1002800018EBE6FF19EBE6FF69EC07F043E919C04C
:1002900012F01AC013F01BC014F0000112511C6EB2
:1002A00013511D6E0F5006E01C500E5C03E20E5001
:1002B0001C6E1D6A1C500D5C02E29CEB0DF050DAC6
:1002C00005E00D500E5C02E28EEB0DF00CB004D098
:1002D0001DDA01E0F8D1116A126A17EBF6FF18EB8C
:1002E000F7FF19EBF8FF0800F550096E095010E010
:1002F0000D50125C0DE26FDA03E1131D01E1E3D151
:100300000A2A000E0B22122AD950170F55DAEBD702
:10031000FDD901E1DED1D7D163DAEE501A6EED508E
:100320001B6E1AEBE6FF1BEBE6FF5BEC07F042E906
:10033000F3501C6EF4501D6E0F5006E01C500E5C06
:1003400003E20E501C6E1D6A1C500D5C02E29CEB19
:100350000DF006DA05E00D500E5C02E28EEB0DF0BA
:100360000CB004D0D3D901E0AED1116A126A1AEBF5
:10037000E9FF1BEBEAFFEF50096E09500FE00D504B
:10038000125C0CE228DA03E1131D01E19CD10A2A78
:10039000000E0B22122A1A2A1B22E9D7B7D901E133
:1003A00098D191D10C8E10040AE1040EA7D9EE5019
:1003B000136EEE50146EEE50156EEF5032D0030EE9
:1003C000105C16E10CAE0CD00BDAEFCF12F000018E
:1003D000136B146B156B12AF23D0136914691FD004
:1003E000FFD9EFCF12F000011251136E146A20D022
:1003F000020E105C0CE10CAE06D0030E7FD9B6D90C
:1004000014AF0ED00CD0030E79D9B0D909D00CAEF0
:100410000AD014DA146B156B13AF02D01469156986
:10042000BCD9166E07D00ADA1251136E1351146E2E
:10043000156A166A0F5002E1010E0E6E1E6A1F6ADF
:10044000D950400FE66E000EDA20E66EE552E55018
:10045000436EE750426E416A116A0A0E106E0950EF
:10046000780A12E0200A10E0280A0CE0200A0AE0CC
:100470003F0A06E00D0A02E0200A08E1020E05D05C
:10048000080E03D0080E0926100E106E0CBE02D006
:100490000C920C94800E0C1417E0163415E3E668E9
:1004A000E668E668E66842D982EC06F0E552E5CFF8
:1004B00015F0E5CF14F0E5CF13F0E7CF12F000010F
:1004C0006CD9166E2D0E07D00CA202D02B0E03D0C5
:1004D0000CA404D0200E206E1E2A01D0206A0E50DB
:1004E00005E1135014101510161061E000010A0EFA
:1004F000126F120E136F000E146F83D93FEC06F0CB
:10050000E552E5CF18F0E5CF17F0E5CF16F0E7CFCD
:1005100015F0000112511525F36E13511621F46EDA
:1005200014511721F86EF4CFF7FFF3CFF6FF080050
:10053000F550126E580E095C05E1610E125C02E383
:10054000200E125E5ED93CEC06F0E552E550166EC8
:10055000E550156EE550146EE750136E42EBE9FF5F
:1005600043EBEAFF4206000E435A12EBEFFF1E2A4E
:100570001350141015101610B9E10CA619D06F0EF7
:10058000095C06E10E501E5C13E31E280E6E10D0AF
:10059000780E095C09E0580E095C06E0620E095C01
:1005A00003E0420E095C04E1020E1F6E01D01E6AD8
:1005B000100E0C1407E00D500E5C04E20F5002E127
:1005C0008DEB0EF00E501E5C03E21E500E5E01D04D
:1005D0000E6A0E501E241F24D8800D5407E20E50C0
:1005E0000D5CD8801E54D8801F54116E010E0C145F
:1005F00006E1115004E08AD866E10AD9116A205058
:1006000007E010D920EBE6FF87D802E1131D5BE07D
:100610001F500BE007D9300EE66E7ED802E1131DA5
:1006200052E0D9D802E1131D4EE00E501F5C02E2E9
:100630001F500E5E300EE66E0EEBE6FFDCD843E197
:10064000422A000E432242EBE9FF43EBEAFFEF5060
:10065000126E125008E0E6D812EBE6FF5DD8F0E12A
:10066000131DEEE130D052D82EE10E501E2411247D
:100670001F240A262CD01050030A1CE0010A14E0A3
:10068000030A07E0ADD8C9D80AEBEEFF0BEBEDFF8C
:1006900020D08BD8156B13AF02D014691569A0D880
:1006A0004ED815C0EEFF15D080D813BF146998D866
:1006B00046D80FD095D8B1D80AEBEFFF0AD08BD827
:1006C00005E1131D03E1F368F4680BD00A2A000E5C
:1006D0000B22D950020F70D8CDD40AEBF3FF0BEBED
:1006E000F4FF7CE9E5CFDAFFE7CFD9FF1200D9505C
:1006F000020F62D80800F550096E1200005E000E6D
:10070000015A00EBE9FF01EBEAFF1200200EE66E52
:1007100011EBE6FFFBEF03F08EEC07F043E9F3CFBC
:1007200012F0F4CF13F00001F31C120013EBE6FFFC
:1007300014EBE6FF15EBE6FF16EBE6FF12006DD8B3
:1007400012C0EEFF13C0EEFF14C0EEFF1200D9CFAF
:10075000E6FFDACFE6FFE1CFD9FFE2CFDAFF120002
:100760001C500D5C116E54D80F501200EECF12F0D9
:10077000EECF13F0EFCF14F00001156B1200EECFA7
:1007800012F0EFCF13F0000112000950E66EE66A96
:10079000C8EC08F042E9F35012001251136E1351E5
:1007A000146E1451156E155112000AEB12F00BEB7A
:1007B00013F00001146B1200E96E000EDA20EA6EED
:1007C000EF2AEECFF6FF000EEF22EECFF7FFEF227B
:1007D000EECFF8FF120026D809EBE6FF8CEF03F00E
:1007E000020E7EEF03F00A0E1202F3500924D00F1E
:1007F000126E77EF03F016D816EC00F044E900090A
:10080000120010EBE6FFE66AE66AE66A96EF03F08E
:1008100011500A26000E0B221200EE50EFCFEAFF15
:10082000E96E120005EBE6FF06EBE6FF1200D8DFEB
:10083000EE501C6EED501D6E1D341200D1DFBFEF67
:0208400003F0C3
:0E084200DACFE4FFE2CFDAFFE652F2A46CD088
:10085000F2949E0ED6261F0E9212010E1FC0E7FFC5
:10086000E75204E0E846FE0BE706FCE1896E010E64
:100870001FC0E7FFE75204E0E846FE0BE706FCE195
:10088000E81C921600011F51040A3BE0070A2CE005
:10089000010A1DE0030A0EE0010A01E03FD0010E4B
:1008A000896E929000010FB192980FB392960FB596
:1008B000929434D0020E896E929200010CB39294FD
:1008C0000CB592960EB992980DBD929027D0040E59
:1008D000896E929400010EB592980DB192960DB565
:1008E00092920DBB92901AD0080E896E92960001DA
:1008F0000EB192980DB392940DB792920DB9929059
:100900000DD0100E896E929800010EB392960EB71C
:1009100092940EBB92920EBD929000D000011F2BBC
:100920001F51040801E21F6BE552E5CFDAFF110009
:10093000D8CFE4FFE0CFE4FFE46EDACFE4FFE2CF0C
:10094000DAFFE652D9CFE6FFE1CFD9FF81E942E8ED
:10095000A1A207D03C0EB326B00EB226A192000190
:100960000A2B43E9E7CFD9FFE552E5CFDAFFE5509F
:10097000E5CFE0FFE5CFD8FF1000D9CFE6FFE1CF0C
:10098000D9FF81E94FE8FC6A07EC00F00400D38C42
:10099000D38AD3889B8CD390D392D39E926A896A50
:1009A000640EE66EE66ADFD842E91F0E896E8A6A37
:1009B0008B6A926A936A946A000EE66EE66A82EC2B
:1009C00008F042E9F26A7F0EE66EE7EC07F041E9D3
:1009D000936AD20EE66E4DEC08F041E9FC0EE66E2D
:1009E0002DEC08F041E9A292F19ED08E0400060E93
:1009F000E66E68EC08F041E9780EE66E9AEC08F0D5
:100A000041E9F00EE66EE66AC1EC07F042E9B0ECAF
:100A100008F00AEC00F00400070EB46E0F0EC16E71
:100A2000C26A640EE66EE66A9ED842E9016AF28CFA
:100A3000E00EF26E00011D6B0C0E1E6F00010B6BC1
:100A400000011D07000E1E5B00011D511E110BE170
:100A500000011D6B060E1E6F00010B071F0E00012B
:100A60000B1501E101D06AD08B7A012A640EE66E83
:100A700001EBE6FF11EC06F041E9E750E66EE66AAD
:100A8000640EE66E110EE66EE66AD950060FE66E4B
:100A9000DACFE6FF22EC07F047E9300E075C010FE2
:100AA000F76A4C0FF66E100EF7220800F5CF0DF026
:100AB000300E085C010FF76A4C0FF66E100EF7222D
:100AC0000800F5CF0EF001500001126F136BC80E35
:100AD0000001D89013BF03D0125D000E135906E336
:100AE00000010C6B0001020E0F6F15D0640E015C4B
:100AF0000EE3300E065C010FF76A4C0FF66E100E17
:100B0000F7220800F5CF0CF000010F6B04D00001B4
:100B10000C6B00010F6B01A402D000010F8101508A
:100B20000001126F136BFA0E0001D89013BF03D0AF
:100B3000125D000E135901E3016A040081D750E9E8
:100B4000E7CFD9FF1200D9CFE6FFE1CFD9FF82E985
:100B5000040000000000000000000006F9E141E987
:100B6000E7CFD9FF1200D9CFE6FFE1CFD9FF83E964
:100B7000FA0EE66EE8DF41E9FA0EE66EE4DF41E9DF
:100B8000FA0EE66EE0DF41E9FA0EE66EDCDF41E9DF
:100B90000006000E015A00EB12F001EB13F0000109
:100BA00012511311E5E141E9E7CFD9FF1200D9CF86
:100BB000E6FFE1CFD9FF84E901EBA9FF00EBA8FF35
:100BC000A69EA69CA684F29E550EA76EAA0EA76EA0
:100BD000A682F28E0400A6B2FDD7A69441E9E7CF23
:100BE000D9FF1200D9CFE6FFE1CFD9FF83E900EBAF
:100BF000A9FFA69EA69CA680A85000D041E9E7CFF9
:040C0000D9FF120006
:0C0C040042E8D9CFE6FFDACFE6FFE1CFEF
:100C1000D9FFE2CFDAFF86E9036A1200F3DF03802F
:100C200003D0F0DF01D00382026A080EE76ED8908D
:100C3000013602360050025C02E3026E012AE72E02
:100C4000F7D703B2120003B081EB00F003A082EBF0
:100C500000F0E552E5CFDAFFE7CFD9FF43E9120014
:100C600045E8D9CFE6FFDACFE6FFE1CFD9FFE2CF03
:100C7000DAFF8FE90C6A1200F3DF0C8003D0F0DF9B
:100C800001D00C820B6A0A6A096A086A200EE76EB4
:100C9000D8900436053606360736083609360A3641
:100CA0000B360050085C0150095802500A58035096
:100CB0000B5809E30050085E0150095A02500A5AC5
:100CC00003500B5A042AE72EE4D70CB212000CB0E2
:100CD0000AD088EB00F089EB01F08AEB02F08BEB95
:100CE00003F00CA008D084EB00F085EB01F086EB5C
:100CF00002F087EB03F0E552E5CFDAFFE7CFD9FF4B
:100D000049E9120044E8D9CFE6FFDACFE6FFE1CFA8
:100D1000D9FFE2CFDAFF8EE980EB08F081EB09F032
:100D200082EB0AF083EB0BF004500802F350006EE4
:100D3000F450016E04500902F3500126000EF42015
:100D4000026E04500A02F3500226000EF420036ED5
:100D500004500B02F350032605500802F3500126FD
:100D6000F4500222000E032205500902F35002261D
:100D7000F450032205500A02F350032606500802DD
:100D8000F3500226F450032206500902F3500326C2
:100D900007500802F3500326E552E5CFDAFFE7CF0C
:060DA000D9FF48E9000C38
:0A0DA6001E0EF66E000EF76E000E32
:100DB000F86E00010900F550056F0900F550066F47
:100DC00003E1056701D03DD00900F550006F09002F
:100DD000F550016F0900F550026F09000900F55048
:100DE000E96E0900F550EA6E090009000900F550A6
:100DF000036F0900F550046F09000900F6CF07F0F2
:100E0000F7CF08F0F8CF09F000C0F6FF01C0F7FFF8
:100E100002C0F8FF0001035302E1045307E0090098
:100E2000F550EE6E0307F8E20407F9D707C0F6FFA6
:100E300008C0F7FF09C0F8FF00010507000E065BB8
:040E4000BFD7120006
:0C0E4400D9CFE6FFDACFE6FFE1CFD9FFFF
:100E5000E2CFDAFF87E944E8D9CFE6FFDACFE6FF51
:100E6000E552E5500A6EE750096E09EBE6FF0AEB22
:100E7000E6FF00EBE6FF01EBE6FF02EBE6FFD950F1
:100E8000030FE66E000EDA20E66E2FEC00F047E965
:100E9000F350076EF450086E03EBE9FF04EBEAFF32
:100EA000EF6A07EBF3FF08EBF4FF45E9E5CFDAFF64
:060EB000E7CFD9FF12009C
:0A0EB600FE0EE3CFE9FFFF0EE3CFCD
:100EC000EAFFF36AF46AEE5203E0F34AF42AFBD72E
:100ED0001200FF0EE3CFF8FFE552FF0EE3CFF7FF5E
:100EE000E552FF0EE3CFF6FFE552E66AE66AE66AF0
:100EF0000900F55209E0FD0EE32A05E1FE0EE32AA2
:100F000002E1FF0EE32AF4D7FD0EE3CF19F0FE0E47
:0C0F1000E3CF1AF0FF0EE3CF1BF012003D
:040F1C00D9CFE6FF44
:100F2000DACFE6FFE1CFD9FFE2CFDAFF85E901347E
:100F300015E200EBE9FF01EBEAFFEECFF3FFEDCFA7
:100F4000F4FFEE2A000EEF22F3CFE9FFF4CFEAFF21
:100F500002EBEFFFEF50F36EF46A0DD0FE0E005C73
:100F600005E102EBE6FFEAEC08F004D002EBE6FF55
:100F700003EC00F041E941E9E5CFDAFFE7CFD9FF23
:020F800012005D
:0E0F8200D9CFE6FFDACFE6FFE1CFD9FFE2CF0D
:100F9000DAFF84E942E880EB04F081EB05F0060E0D
:100FA000D89004360536E804FBE105EBBEFF0440AB
:100FB000E8423F0B300B0001126FCF0EBD1412112F
:0E0FC000BD6E43E9E5CFDAFFE7CFD9FF12009F
:020FCE00D9CF79
:100FD000E6FFDACFE6FFE1CFD9FFE2CFDAFF83E920
:100FE000F29200A202D0F18C01D0F19C00A002D0BC
:100FF000F18E01D0F19E938000AC02D0F18001D03F
:10100000F19000AE02D0F28801D0F29841E9E5CF2C
:08101000DAFFE7CFD9FF12005F
:08101800436861726C696570A8
:101020006C657820646973706C6179202D2076314D
:101030002E3030202D2032362F30342F32350053D1
:101040002F4E20303030310D0A006911003F065B11
:0A1050004F666D7D077F6F040201FB
:06105A00D9CFE6FFDACF5A
:10106000E6FFE1CFD9FFE2CFDAFF83E9360E0014C5
:10107000B16EB36AB26AA19200AE02D0A08201D072
:10108000A09200A002D0B18E01D0B19EB18041E902
:0A109000E5CFDAFFE7CFD9FF120029
:06109A00D9CFE6FFDACF1A
:1010A000E6FFE1CFD9FFE2CFDAFF83E97F0E00143C
:1010B000D56ED76AD66AF29400AE02D0F28A01D019
:1010C000F29AD58E41E9E5CFDAFFE7CFD9FF1200DA
:1010D000D9CFE6FFDACFE6FFE1CFD9FFE2CFDAFFE3
:1010E00083E9FB0E0014CA6ECC6A9E9200AE02D059
:1010F0009D8201D09D92CA8441E9E5CFDAFFE7CF16
:04110000D9FF120001
:0C110400D9CFE6FFDACFE6FFE1CFD9FF3C
:10111000E2CFDAFF84E942E880EB04F081EB05F0EE
:1011200005EBD7FF04EBD6FF43E9E5CFDAFFE7CFC6
:04113000D9FF1200D1
:0C113400D9CFE6FFDACFE6FFE1CFD9FF0C
:10114000E2CFDAFF83E90C0EBD129494CA9400EB4F
:10115000CBFFCA8441E9E5CFDAFFE7CFD9FF120020
:041160009494120051
:0C116400253033750028432920446172B7
:10117000696F2773204175746F6D6174696F6E209C
:1011800032303235202D20472E4461720D0A000086
:10119000F36AF46AFF0EE124E96EFF0EE220EA6EC4
:1011A000ED6607D02F0EEF6404D03A0EEF6001D049
:0411B000F32A12000C
:0C11B400800EF36E00EE00F00F0E01D86C
:1011C0001200EA6002D0EE6AFCD7F350E960120028
:0411D000EE6AFCD7F0
:0C11D400FF0EE350ACBA04D0AF6AAB8E43
:1011E000AC8A949CACA2FED7AD6EF36EF46A12008A
:1011F0001EEE00F02EEE00F0F86AD3EC06F00EECD6
:0A12000009F0BDEC04F0FBD712006A
:06120A00303132333435AF
:0B1210003637383961626364656600A0
:02121C001200BE
:02121E00000CC2
:0112200000CD
:020000040020DA
:040000003437343429
:020000040030CA
:010001008975
:0100020012EB
:0100030011EB
:010005008179
:01000600C138
:00000001FF
