:020000040000FA
:020000000C28CA
:10000800FE00030EF4000408F5000A08F600212893
:100018000D287322AA007422AB007122FC00722200
:10002800FD00A001A101A201A301A401F701F801AB
:10003800F901FA01FB018301FD280B1C2B2883120F
:10004800050885192A285A228312A3000B100B1DB4
:10005800EC280B119D30F3007308831281073730A9
:10006800F300730883168504CF28013083128500B6
:10007800FE30F3007308831685057A1C4728DF30A5
:10008800F30073088505FA1C4D28FD30F30073084A
:1000980085057A1D5328FB30F30073088505FA1D82
:1000A800E028EF307428023083128500FD30F30019
:1000B800730883168505F71C6528FB30F300730861
:1000C8008505771D6B28EF30F30073088505791EC9
:1000D8007128DF30F30073088505781FE028FE30AB
:1000E800F30073088505E028043083128500FB308F
:1000F800F300730883168505791D8628DF30F30021
:1001080073088505781C8C28EF30F3007308850583
:10011800781D9228FD30F30073088505F81A7328B6
:10012800E028103083128500EF30F300730883163F
:100138008505791CA328DF30F30073088505F81CB2
:10014800A928FB30F30073088505F81DAF28FD309A
:10015800F30073088505781A7328E0282030831285
:100168008500DF30F300730883168505F91CC02865
:10017800EF30F30073088505F91DC628FB30F3003E
:1001880073088505F91ECC28FD30F3007308850532
:10019800791B7328E0287C08013A03193928033AA7
:1001A80003195728063A03197828143A0319952889
:1001B800303A0319B228E0280310FC0D08307C06F9
:1001C800031DE8280310FC0D7C1FEC28FC01FC0A29
:1001D80083128C1CF4288C100130F3007308FB0781
:1001E80076088A0075088400740E8300FE0E7E0E61
:1001F80009006400613083168F0090010F1D0229E9
:1002080070308F043F3085008312850102308312DD
:10021800A7000430A600BA30A500A50B1129A60B2B
:100228001129A70B11293F30831285000830831646
:100238008500831281018B017F309200C3308316C1
:1002480092008312910183168C1464000530831682
:10025800810007308312990083169F0108309500AA
:1002680002308312A7000430A600BA30A500A50BFF
:100278003B29A60B3B29A70B3B298312A201E83097
:100288008B0008308316960000308312AA000330D2
:10029800AB00A4014030F800F90083122308031DC5
:1002A8009929B729FA01F901F801F701A201B6293C
:1002B800043022020318B6292208773E8400800100
:1002C8000130A5002508A207B6292208031D7329B5
:1002D8002208A500A6012508A800260879292208D1
:1002E800FF3EA800FF3003180030A9002808773E19
:1002F80084008017B6297717B6297A15B6297A1493
:10030800B629FA14B62930302302031CB6293A302C
:1003180023020318B629043022020318B62922083A
:10032800773E840023088000642923080A3A0319C9
:100338005A29063A03195629013A03195A292D3A16
:1003480003195C29043A03198329013A03198129FD
:100358000F3A03198529073A03197F29033A031924
:1003680069298729A3010130AA020030031CAB03C5
:10037800AB022A082B04031D51290030AA000130C2
:10038800AB000130A40224081F39031D5129640061
:020398005129E9
:1004000002308A000408840A8207003444346934C4
:10041000733470346C34613479342034323433348E
:10042000323420342D342034763431342E34303488
:10043000303420342D342034333430342F343034BD
:1004400034342F3432343534003400343F340634FD
:100450005B344F3466346D347D3407347F346F340D
:1004600004340234013428344334293420344434ED
:100470006134723469346F34273473342034413436
:10048000753474346F346D346134743469346F345A
:100490006E342034323430343234353420342D3418
:1004A000203447342E344434613472340D340A34E9
:1004B000003400340830F1002230F000F00B5E2AE6
:1004C0000000F2014530F000F00B642A0310F20C3A
:1004D00083128519F2170130F102031D622A720896
:0A04E000080001342E340034033408
:044000004400470031
:02400E00C434B8
:00000001FF
